:020000040000FA
:1000000060F1FF1F65010000710100007301000035
:1000100000000000000000000000000000000000E0
:10002000000000000000000000000000750100005A
:1000300000000000000000007701000079010000CE
:100040007B0100007B0100007B0100007B010000C0
:100050007B0100007B0100007B0100007B010000B0
:100060007B0100007B0100007B0100007B010000A0
:100070007B0100007B0100007B0100007B01000090
:100080007B0100007B0100007B0100007B01000080
:100090007B0100007B0100007B0100007B01000070
:1000A0007B0100007B0100007B0100007B01000060
:1000B0007B0100007B0100007B0100007B01000050
:1000C00000F002F800F03EF812A030C808382418FA
:1000D0002D18AC4201D100F035F80FCCA246AB464A
:1000E0000CA730CF2D1B083F3F197C427F1E544484
:1000F0002D090426F441641EAC4201D300F022F81D
:100100000126334200D0FB1A3343984754465D46DC
:10011000DFE7000094010000A40100007047000028
:100120000023002400250026103A01D378C1FBD813
:10013000520700D330C100D50B6070471FB51FBDFB
:1001400010B510BD00F031F81146FFF7F7FF00F0D1
:1001500085F800F049F803B4FFF7F2FF03BC00F0A4
:100160004FF8000072B60948804762B60848004759
:10017000FEE7FEE7FEE7FEE7FEE706480047000071
:1001800005480649044A064B70470000110200006A
:10019000C10000007B01000060F0FF1F60F1FF1F45
:1001A00060F0FF1F704770477047754600F024F8F5
:1001B000AE46050069465346C008C000854618B0E3
:1001C00020B5FFF7DDFF60BCB64600260027C0C59E
:1001D000C0C5C0C5C0C5C0C5C0C5C0C5C0C5403DFF
:1001E000490849008D46704710B50446C046C046D0
:1001F0002046FFF7B0FF10BD0048704700F0FF1F1A
:1002000001491820ABBEFEE726000200704700003F
:1002100001490020086070470081044083B00290CB
:1002200000200190FFE701980299884212DAFFE767
:1002300000200090FFE700980749884205DCFFE7AF
:10024000FFE70098401C0090F5E7FFE70198401C8D
:100250000190E8E703B07047571B000080B582B0FB
:10026000002001900C49086801229302184308609D
:1002700010020A4908600A4908689204104308609D
:10028000FFE7084908680122920450400860642092
:10029000FFF7C4FFF5E7C0463880044048A004409B
:1002A00054F00F404CF00F401004000000F0FF1F0E
:1002B00060010000200100000000000000000000BC
:1002C000000000000000000000000000000000002E
:1002D000000000000000000000000000000000001E
:1002E000000000000000000000000000000000000E
:1002F00000000000000000000000000000000000FE
:1003000000000000000000000000000000000000ED
:1003100000000000000000000000000000000000DD
:1003200000000000000000000000000000000000CD
:1003300000000000000000000000000000000000BD
:1003400000000000000000000000000000000000AD
:10035000000000000000000000000000000000009D
:10036000000000000000000000000000000000008D
:10037000000000000000000000000000000000007D
:10038000000000000000000000000000000000006D
:10039000000000000000000000000000000000005D
:1003A000000000000000000000000000000000004D
:1003B000000000000000000000000000000000003D
:1003C000000000000000000000000000000000002D
:1003D000000000000000000000000000000000001D
:1003E000000000000000000000000000000000000D
:1003F00000000000000000000000000000000000FD
:10040000FFFFFFFFFFFFFFFFFFFFFFFFFEFFFFFFFD
:04000005000000C136
:00000001FF
